:020000040821D1
:1020000000FC02000100300069292108692921082B
:10201000692921086929210869292108000000008F
:1020200000000000000000000000000069292108F5
:1020300069292108000000006929210809222108D6
:1020400069292108692921086929210869292108A4
:102050006929210869292108692921086929210894
:102060006929210869292108452C210869292108A5
:10207000892E21086929210869292108692921084F
:102080006929210869292108692921086929210864
:102090006929210869292108692921086929210854
:1020A0006929210869292108692921086929210844
:1020B0006929210869292108443900006929210872
:1020C0006D292108252C2108692921086929210861
:1020D0006929210869292108592E2108712E210812
:1020E000D92921086929210869292108097D316137
:1020F00069292108000000006929210869292108AF
:1021000069292108692921086929210869292108E3
:1021100069292108692921086929210869292108D3
:1021200069292108692921086929210869292108C3
:1021300069292108692921086929210869292108B3
:102140006929210800000000692921080000000019
:10215000692921086929210800000000692921084E
:102160006929210869292108692921086929210883
:1021700069292108000000000000000069292108E9
:10218000692921080000000069292108692921081E
:102190006929210869292108692921086929210853
:1021A0006929210869292108692921086929210843
:1021B00069292108692921080000000069292108EE
:1021C000000000006929210810B5054C237833B9B7
:1021D000044B13B10448AFF300800123237010BDFA
:1021E00034040000000000008C4D210808B5034BAA
:1021F0001BB103490348AFF3008008BD0000000095
:10220000380400008C4D2108002000F0B1B8000017
:1022100010B500F0FBFB00F05DF80021084600F06F
:1022200087F80121084600F083F80121022000F020
:102230007FF80D4B1B68B3F1206F0ED20A22B3FB5F
:10224000F2F34FF0E022013B5361084BF02183F899
:1022500023100023936107231361054C204602F0ED
:10226000B9F830BFFAE700BFE002000000ED00E07F
:10227000984C2108012802D0022805D07047034A53
:102280001368013313607047014AF9E754040000F2
:102290005004000010B50C4CE3689847A3680B4845
:1022A0009847236902209847A46A01211520A04776
:1022B00001211620A0474FF4E1310120A047044B33
:1022C0008022C3F8842010BDB04C2108752221085B
:1022D00000E100E038B5134C23680520D3F8C03086
:1022E0009847236810485D6C002319460A22A847C6
:1022F00023680D481D68002319460A22A847236851
:102300000A485D6C002319460822A847236807483D
:102310001C68002319460822A047BDE83840FFF793
:10232000B9BF00BF000130000000134600C0042404
:1023300010B450B90B4B1B685C68CBB201460A481D
:102340000A22A4465DF8044B6047012807D1054BDB
:1023500006481B6808225C68CBB20021F1E75DF8F3
:10236000044B7047000130000000134600C00424F5
:10237000014630B9084B09481B689B6E4FF48062D8
:102380001847012807D1044B05481B684FF4807299
:102390009B6E0021F4E770470001300000001346F7
:1023A00000C0042413B5094C00238DF804302360C9
:1023B000074B01219B6901A8984723681BB19DF831
:1023C000040002B010BD00F049FDF6E75004000023
:1023D000B04C210813B5094C8DF807000023236089
:1023E000074B01215B690DF10700984723680BB18A
:1023F00002B010BD00F032FDF8E700BF5404000049
:10240000B04C210803681B780022202B04D0093B24
:10241000042B01D9D0B270470368591C01605B7866
:102420000132F2E770B50D4614460E46731B9C420E
:1024300001DC204670BD16F8010BFFF7CBFFF5E776
:10244000094A1168034609B90849116010686946CC
:1024500003448B4289BF064B13600C224FF0FF30C0
:1024600088BF1A60704700BF58040000440900008C
:10247000340900004FF0FF3070474FF400534B60B9
:102480000020704701207047002070470FB42DE9ED
:10249000F0438BB012AB002453F8046B01938DF81A
:1024A0001040FFF77FFF0AABC0B223440D2803F8AA
:1024B000180C01D00A2804D134BB8DF810404FF01D
:1024C000FF340134142CECD100238DF8243004ABFC
:1024D00003939DF81030019D0296002B00F02C8193
:1024E000002742F22006029B1B78002B53D0039B4F
:1024F0001B78002B4FD002A8FFF784FF044638B1A9
:1025000003A8FFF77FFFEEE7002203F8172CDEE7B2
:10251000029B1A4612F8011B252902D15978252958
:102520000AD10292039A59781078884233D1013245
:10253000023303920293D6E70292804681460A2232
:10254000029B197808F07C00002900F08380C0B15C
:10255000002C08BF6324082800F08680202800F0A3
:10256000A080042817D155F8042B03991444A242E3
:10257000039B02D01878002870D19942B3D001375C
:10258000B1E7692955D01ED8632958D012D8392906
:1025900007D82F2934D8F8B20BB0BDE8F04304B007
:1025A00070475829F7D1013348F0200802934FF0C3
:1025B0001009C5E76429EED148EA06080133029301
:1025C0004FF00A09BCE76F39C8B20928E3D80929D6
:1025D000E1D801A050F821F02526210897252108EF
:1025E00097252108972521084F262108972521089E
:1025F0001F2621089725210897252108A7252108AE
:10260000002CC8D102990B46544313F8010B0293D6
:102610004B78303B303C092B0444F3D990E748F029
:102620002008CBE7013348F0200802934FF0080957
:1026300086E7013348F020080293814680E7012CA9
:1026400048F0040838BF01240133029378E748F0CA
:102650000808F9E700287FF47BAF9CE7581C03903B
:102660001B7802F8013B82E703A8FFF7CBFE55F881
:10267000043B03981C44A342039A06D0117811F03E
:10268000DF0F02D00939042905D890423FF42BAF5F
:1026900000221A7073E7511C0391127803F8012B82
:1026A000E9E703A8FFF7AEFE19F0EF0F0DD1039B8A
:1026B0001A78302A49D15A7802F0DF02582A3ED1DE
:1026C00002330393023C4FF01009039B1A782B2A24
:1026D00009D02D2A0AD101330393013C4FF0FF3179
:1026E0004FF0000C17E001330393013C0121F7E7A1
:1026F000A3F13002D2B2092A05D9A3F16102052A59
:1027000014D8573BDAB2914504F1FF3408D90130AF
:102710000CFB092C0390039803780BB1002CE7D134
:1027200055F8043B0CFB01F1196028E7A3F14102C5
:10273000052AF5D8373BE5E74FF0FF372BE7B9F12E
:10274000000F08BF4FF00809BFE7B9F1000F08BF3D
:102750004FF00A09B9E700BF30B5104B93F8A43029
:102760008FB0C3B10E4D0FCD6C460FC40FCD0FC44B
:102770000FCD0FC495E8030084E80300094C6846B8
:10278000D4F8443702F002FB00F002FED4F84437DC
:1027900000200FB030BD0120FBE700BF0001200882
:1027A000A401200800800524134B0168D3F84437A6
:1027B000F0B50127013900D2F0BDD0F808C0466855
:1027C000CCF38455C5EBDC62346801320023013A56
:1027D0000CD203FA05F203EA0C03C3F3150324EA4F
:1027E0000202AB40134333600830E3E707FA02FE0E
:1027F00043EA0E03EBE700BF0080052408B5184844
:10280000FFF7D2FF1748FFF7CFFF00F0D3FF00F02C
:10281000E5FF00F0EFFF01F001F801F00BF81248BE
:10282000FFF7C2FF1148FFF7BFFF1148FFF7BCFFDA
:102830001048FFF7B9FF1048FFF7B6FF0F48FFF742
:10284000B3FF0F48FFF7B0FF0E48FFF7ADFF0E488C
:10285000FFF7AAFFBDE808400C48FFF7A5BF00BF7F
:10286000B800000074010000B00200003C0000004D
:10287000500000000002000070000000180100007D
:102880009400000088000000C8020000D40200008C
:1028900010B5254CFFF7B2FF94F8040600F00100D4
:1028A000FFF75AFF4FF4C023C4F86C34D4F840311A
:1028B0001E4843F40023C4F84031D4F8403143F0BB
:1028C0000103C4F84031D4F8403143F00203C4F8A6
:1028D0004031FFF769FF16491648D1F8103543F02B
:1028E0000203C1F81035636923F40033636163693F
:1028F00043F480336361D0F84027D0F87837C2F3CF
:102900004342023A23F4F07343EA4213C0F87837A3
:10291000D1F8943443F40023C1F89434236943F488
:102920006013236110BD00BF00800424600200001A
:1029300000A005240080052408B538B10648FFF73B
:1029400033FF0648BDE80840FFF72EBF0448FFF7F5
:102950002BFF0448F6E700BFA00000005C00000069
:102960000401000024010000FEE7000008B50E4B42
:102970000E48DA1C121AC11E22F00302994288BFC7
:1029800000220B4901F0A2FC0A480B494FF000025B
:102990008842B8BF40F8042BFADB00F0D5F8BDE858
:1029A0000840FFF735BC00BF340400000C000000F5
:1029B000344F21083404000044090000FEE7000001
:1029C000044B1A6822F00F021A601A68104318604C
:1029D000704700BF000005240B48D0F800D05DF818
:1029E00004EB5DF804CB5DF804BB5DF804AB5DF867
:1029F000049B5DF8048B80BC40BC20BC10BC08BCB0
:102A000004BC02BC01BC70476004000008B5314B37
:102A1000314A1A60314B324993F8063603F00F03FE
:102A20000F2B0BBF4FF000624FF00262D2F8370459
:102A3000D2F8DF010CBF087008702A4B0CBFD2F827
:102A40003624D2F8DE211A7000F018FE00F018FECD
:102A5000254BDB694FF08061D3F880304FF08C401C
:102A6000984702214FF08C4000F06EFF022000F0EA
:102A7000E3FF012000F008FE184B1A6A012161F300
:102A800002021A621A6A1107FCD5184B9A690221D0
:102A900061F384029A619A691204FCD500F0B8FFD0
:102AA000134B14490C4A99601961D96159614FF46B
:102AB000FA415962196299620F491048DA60C3E914
:102AC0000022DA625A640E4A1863C3E90F1159638F
:102AD0009A6108BDE00200000048E801008004247B
:102AE0005C04000064040000000130000081042444
:102AF0006804000000B4C404005A6202002D3101D1
:102B000000C05D004FF0E02384B0D3F8402F019265
:102B1000D3F8442F02920199094A91420DD10299AA
:102B2000084A914209D1D3F8882D0392039A42F4BE
:102B300070020392039AC3F8882D04B0704700BF57
:102B400021001110110000111FB52F490020019024
:102B500002900390D1F810350193019B0193FFF788
:102B60002FFFD1F89C3423F46073C1F89C34D1F862
:102B700004370393039BC1F80435D1F8003703935E
:102B8000039BC1F80035D1F8103543F01C03C1F8A0
:102B900010351E4BD3F8024014F48074FAD11C484F
:102BA000436943F480334361436964F351434361B0
:102BB000FFF7A8FF174B4FF080725A60164BC0F812
:102BC0004031164B5A6864F3C3025A60036A0E4AD6
:102BD00043F480330362036A43F400330362D2F8A0
:102BE000943443F40023C2F89434036943F460132B
:102BF00003610B4B1A6842F400221A601A6842F40F
:102C000080221A6004B010BD00A005240000052435
:102C100000800424000030410300080000810424E7
:102C200000840424034B044ADB680449DB6904483C
:102C3000184700BF000130003005000000FC020012
:102C4000E4020000034B044ADB680449DB690448E2
:102C5000184700BF00013000B00700000000062444
:102C6000F0020000064B1868002382B262F30F03E3
:102C7000000C60F31F4382B0184602B0704700BFDB
:102C8000E84C2108014B1868704700BFFC020000A7
:102C900013B5064B064A9B6B0192064A00921C68CC
:102CA000054A064B0649A04702B010BD000130009E
:102CB000B8040000A0080000E402000000FC0200CC
:102CC000FC020000044B054905481022DA60054B60
:102CD0009B6B5B68184700BF00840424E40200007B
:102CE000FC02000000013000054B064A9B6B0649C0
:102CF00010B49C68054BA4461B685DF8044B604704
:102D000000013000E4020000FC020000A008000006
:102D100013B5064A064B12689B6B0192054A009256
:102D20001C69054A054BA04702B010BDA008000071
:102D30000001300030050000FC020000E402000049
:102D400013B5064A064B12689B6B0192054A009226
:102D50005C69054A054BA04702B010BDA008000001
:102D60000001300030050000FC020000E402000019
:102D70001FB5074C074B24689B6B0294064C0194CB
:102D8000064C00949C69064BA04704B010BD00BFE0
:102D9000A00800000001300030050000E40200003F
:102DA000FC020000024B03489B6BDB69184700BF25
:102DB00000013000FC020000024B03489B6B1B6AC1
:102DC000184700BF00013000FC020000024B03481E
:102DD0009B6B9B6A184700BF00013000FC0200009B
:102DE000024B03499B6BDB6A184700BF00013000B0
:102DF000FC020000024B03489B6B1B6B184700BF93
:102E000000013000FC02000030B585B0044601200E
:102E1000039100F03BF802460648074B00689B6BA5
:102E20000190064800905D6A0399054B2046A8472B
:102E300005B030BDA008000000013000E402000031
:102E4000FC020000024B03489B6B5B6B184700BF02
:102E50000001300084030000FFF7F4BF024B034879
:102E60009B6B5B6B184700BF00013000FC02000049
:102E7000FFF7F4BF024B03489B6B5B6B184700BF27
:102E80000001300040030000FFF7F4BFD0B50F2869
:102E900000F27882DFE810F010005B009600D100AD
:102EA0007602760205013C016C017C018B01B201C6
:102EB000D70102022E0250024FF08C43DB6903F06F
:102EC0000703042B41D8DFE803F0033A34373D0011
:102ED000824B9A6C013A052A37D8DFE802F00322C8
:102EE00024222628586C4FF08C43DC69DB69C4F33C
:102EF000C30413F0005F60D094B100F03BFF0646BE
:102F000020460F4600F036FF754B002200F0F6FD1C
:102F100002460B463046394601F0D0F801F0B6F9CA
:102F2000D0BDD86ADFE7D86BDDE7186BDBE7586BFD
:102F3000D9E76A4BD869D6E7684B5869D3E7674B3E
:102F40009868D0E7654BD868CDE70020CBE74FF015
:102F50008C43DB69C3F3C213042B2CD8DFE803F0E6
:102F600003251F2228005D4B9A6C013A052A22D8BE
:102F7000DFE802F0030D0F0D1113586C4FF08C4376
:102F8000DC69DB69C4F3832413F0804FB3E7D86AAC
:102F9000F4E7D86BF2E7186BF0E7586BEEE74F4BAE
:102FA000D869EBE74D4B5869E8E74C4B9868E5E783
:102FB0004A4BD868E2E70020E0E7002CB0D0B0FB35
:102FC000F4F0ADE74FF08C439B69C3F3C233052B9C
:102FD00031D8DFE803F0032124272A2D3F4B9A6CD8
:102FE000013A052A27D8DFE802F0030F110F131565
:102FF000586C4FF08C439B69C3F3C32213F4F04F1A
:103000008ED0B0FBF2F08BE7D86AF2E7D86BF0E72E
:10301000186BEEE7586BECE7304B9868E9E72F4BFD
:103020001869E6E72D4B5869E3E72C4BD869E0E7D0
:103030002A4BD868DDE70020DBE74FF08C439B6A22
:10304000C3F34243032B2AD8DFE803F002202326F0
:10305000224B9A6C013A052A21D8DFE802F0030FCF
:10306000110F1315586C4FF08C439A6AC2F3055335
:1030700012F07C7F3FF454AF5B0046E0D86AF2E781
:10308000D86BF0E7186BEEE7586BECE7134B586919
:10309000E9E7124B9868E6E7104BD868E3E70020B1
:1030A000E1E74FF08C42936903F00703032B1FD82D
:1030B000DFE803F00210181B084BD86A9169936986
:1030C000D2698C05C3F3C503C2F3007212D5B2B93D
:1030D000DBB925E7014BD869F0E700BF68040000C1
:1030E0000000E03F814B5869E8E7804B9868E5E7CE
:1030F0000020E3E71AB9002BBED1400810E7D9073A
:103100007FF50EAF022B7FF60BAFB0FBF3F007E7B6
:103110004FF08C439B69C3F30263042B00F23281AE
:10312000DFE813F0E00005001D00200023006F4BD6
:103130009A6C013A052A00F22581DFE812F00600B8
:1031400008000B0008000D00F800586CE8E6674B1B
:10315000D86AE5E6D86BE3E6644B186BE0E6634BB0
:103160009868DDE6614BD869DAE6604B5869D7E6C6
:103170004FF08C42936913F4802F5C4B0CBF58695D
:103180009868936992691202C3F3C343B3D59FE76A
:103190004FF08C439A6A12F4806F544A0CBF9069C6
:1031A000D0689A6AC2F3C52312F4FC3F62E7504A22
:1031B00093691B0F062B1FD8DFE803F0040C0F12D6
:1031C00015181B00494B58689369C3F3464213F422
:1031D0007E0F15E7454B186AF6E7444B586AF3E74C
:1031E000424B986AF0E7414BD86AEDE73F4B186BCA
:1031F000EAE73E4BD868E7E70020E5E73C4AD369B9
:10320000C3F34303052B1CD8DFE803F0030C0F12B4
:103210001518364B5868D369C3F34713002B7FF456
:103220002BAF7DE6314B186AF5E7304B586AF2E771
:103230002E4B986AEFE72D4BD86AECE72B4B186BB7
:10324000E9E70020E7E72A4A136AC3F34303072BA1
:1032500022D8DFE803F0040C0F1215181B1E234BB5
:103260005868136AC3F3421213F0E00FC8E61F4B0D
:10327000186AF6E71D4B586AF3E71C4B986AF0E7AB
:103280001A4BD86AEDE7194B186BEAE7174BD86869
:10329000E7E7164B586BE4E70020E2E7144B1B6BA3
:1032A000C3F34303062B6DD801A252F823F000BFED
:1032B000CD322108D3322108D9322108DF3221084A
:1032C0004F31210859312108E5322108074B586850
:1032D00026E6064B186A23E6044B586A20E6034BA1
:1032E000986A1DE6014BD8681AE600BF6804000022
:1032F00000140424244B5B6BC3F34303082B41D815
:1033000001A252F823F000BFCD322108D3322108A8
:10331000D9322108DF3221084F31210859312108E3
:10332000E53221082D33210833332108174B586B20
:10333000F6E5164B9869F3E5134AD36AC3F34303E2
:10334000062B1DD8DFE803F0040A0D101316190030
:103350000E4B5868D36AC3F34713B9E60B4B186A90
:10336000F8E70A4B586AF5E7084B986AF2E7074B0B
:10337000D86AEFE7054B186BECE7044BD868E9E730
:103380000020E7E70020CBE50014042468040000D7
:10339000F0B59E4C9E4BA26805789E4E02EA030152
:1033A000027802F001020A439B49A2608A6802EA9D
:1033B0000304427802F00102920042EA951222438D
:1033C0008A600A69457802EA03040278C2F344027B
:1033D0002243924C0A61A26802EA0301827802F059
:1033E0000302520142EAD5020A438D49A2608A686B
:1033F00084781A4042EA94028A4C8A60A168C278B2
:10340000194002F01F021143A160B268047902EA78
:10341000030504F03F04C278640044EAD214C2F306
:10342000411242EA84022A43B2607F4EB26802EA45
:103430000304427902F07F050279920942EA85028B
:1034400022437A4DB260AA6802EA0304C27902F00C
:103450000F022243764CAA60A268C579067A1A4008
:1034600042EA1512734DA260AA6802EA0304427C84
:1034700002F07F022243AA606F4DAA6802EA0304A9
:10348000027A02F07F022243AA606C4DAA6802EA27
:103490000304427A02F01F02520042EAD61222438B
:1034A000674EAA60B268857A02EA0304C27A5200C3
:1034B00042EAD512057B05F0010542EA4522224386
:1034C000604DB260AA68467A02EA0304827A02F08A
:1034D0007F02D20042EA56122243AA605A4D5B4E46
:1034E000AA6802EA0304B0F80D202243AA60B26879
:1034F000457D02EA0304027D05F00F0542EA05223C
:103500002243B260524EC57DB26802EA0304827D56
:1035100005F00F0542EA05222243B2604D4EC57DFB
:10352000B268477902EA0304027E120142EA1512E8
:10353000457E05F00F0542EA05322243464DB26052
:10354000AA68467E02EA0304827E120142EA16124B
:103550002243AA60414DAA6802EA0304B0F81B2086
:103560002243AA603E4DAA6802EA03048279560803
:1035700002F00102520042EAD71242EA86022243D6
:10358000847CAA60457C90F8246004F00F0252000D
:1035900052EAD512334D1EBFA96819401143A960E4
:1035A000314D1B49AB6803EA0102437F03F00F036F
:1035B0001343AB602D4DAB6803EA0102837FC3F375
:1035C00083031343AB602A4DAA6802EA010390F813
:1035D000252002F00702520042EAD6121A43AA60DE
:1035E000244DAB6803EA0102C37C03F003035B00D4
:1035F00043EAD4131343204AAB6093681940837C99
:10360000C3F302130B439360F0BD00BF0002000040
:103610000000C0FF0C0200003C0000006801000038
:103620007C0000008002000044020000C80200008C
:10363000D4020000500100005C010000B002000054
:10364000980200008C02000088000000BC0200000C
:10365000240000000C0000003000000018000000F2
:103660002802000074020000700000001801000031
:1036700094000000AC000000A4020000FFF708B9AD
:103680000020FFF759B900000D4A0E49D2F8103555
:10369000013823F0030310B5C0B2C2F81035D1F8D9
:1036A0000230DC05FBD4D2F81045012383402343CC
:1036B000C2F81035D1F80230DB05FBD410BD00BFD5
:1036C00000A005240000052430B58BB00023019331
:1036D0000293039304930593069307930893099326
:1036E0008DF802308DF8033010B901200BB030BDD9
:1036F000019A50F822200292029A002AF5D00193F2
:103700000121019C029A944201D30020EEE7019A24
:1037100000EBC20252680392019A013250F8322043
:103720000492049AC2F384528DF80320049AD20EB4
:103730008DF802209DF802209DF80340121B0132F3
:103740000592059A162AD0D8039A126807929DF816
:103750000320D2B2069208930993069C079A01FAB5
:1037600004F422EA04020792099A089C01FA02F280
:1037700022430892069A01320692099A013209926E
:103780009DF80320059D069C2A44A242E5D8089C8A
:10379000049A22400492049A9DF80350079CAA4080
:1037A00022430492039A049C1460019A013201920C
:1037B000A7E70000064B074A996C0748DA6202291E
:1037C000D96C08BF1A60022908BF5A60FFF77CBF96
:1037D000680400000048E80168010000024B034A49
:1037E00003485A63FFF770BF680400000048E8010F
:1037F0007C000000064B074A996C07481A630529AC
:10380000D96C08BF1A60052908BF5A60FFF75CBF72
:1038100068040000002D31015C010000034B0448E6
:103820004FF4FA421A62FFF74FBF00BF680400006E
:1038300080020000034B04484FF4FA425A62FFF73B
:1038400043BF00BF680400002802000008470000D2
:1038500007B50B46114606281ED8DFE800F0042104
:10386000333B47586400364A106A40025EBF106A14
:1038700040F48000106213B90A20FFF7E7FF314BD4
:10388000D3F81C2122F08012C3F81C21D3F81C218C
:1038900042F00122C3F81C21002003B05DF804FBB4
:1038A000274A106A800207D4106A40F48010106220
:1038B000106A40F400101062002BEDD10A20FFF7CF
:1038C000C5FFE9E71E4A106AC002F5D4106A40F449
:1038D0008010F0E71A4A106A00035EBF106A40F4D5
:1038E00000201062002BD7D10220E8E7144B1A6A9F
:1038F0005203D1D41A6A42F480221A624FF4FA7049
:103900000191FFF7A3FF019940F2DC50D7E70C4A81
:10391000106A80035EBF106A40F400301062002B12
:10392000BAD1FA20CBE7064A106AC0035EBF106A1C
:1039300040F480301062002BAED19620BFE700BF6C
:10394000008104240080042410B50446002857D0C8
:103950000139052954D8DFE801F003121C2633444D
:10396000284BD969012262F30201D961264B9A647E
:103970005A6C1A60A36D002BFCDA002010BD214B9D
:10398000D969022262F30201D9611F4B9A64DA6A93
:10399000EFE71C4BD969032262F30201D9611A4B8C
:1039A0009A64DA6BE5E7194B40229A83154BD96983
:1039B000042262F30201D961134B9A641A6CD8E7AE
:1039C000104B1A6AD2025EBF1A6A42F480121A625F
:1039D000D969052262F30201D9610B4B9A641A6B13
:1039E000C7E7012100220846FFF732FF054BD969DE
:1039F000062262F30201D961034B9A645A6BB8E75D
:103A00000120BBE70081042468040000008013410A
:103A1000074B4FF040725A60064B5A6B42F001025E
:103A20005A635A6B42F002025A6304229A63704747
:103A30000000304100840424013808B505284FD81F
:103A4000DFE800F0030F1923303F264BD96901222C
:103A500062F31241D961244BDA645A6C5A60002037
:103A600008BD204BD969022262F31241D9611E4B75
:103A7000DA64DA6AF2E71B4BD969032262F3124176
:103A8000D961194BDA64DA6BE8E7184B40229A8364
:103A9000144BD969042262F31241D961124BDA64E2
:103AA0001A6CDBE7002201210220FFF7D1FE0D4B4B
:103AB000D969052262F31241D9610B4BDA641A6BA2
:103AC000CCE7012100220846FFF7C2FE054BD96969
:103AD000062262F31241D961034BDA645A6BBDE7E7
:103AE0000120BDE700810424680400000080134128
:103AF00081F0004102E000BF83F0004330B54FEA9F
:103B000041044FEA430594EA050F08BF90EA020F0B
:103B10001FBF54EA000C55EA020C7FEA645C7FEA9E
:103B2000655C00F0E2804FEA5454D4EB5555B8BFC1
:103B30006D420CDD2C4480EA020281EA030382EA32
:103B4000000083EA010180EA020281EA0303362DC4
:103B500088BF30BD11F0004F4FEA01314FF4801C97
:103B60004CEA113102D0404261EB410113F0004FA9
:103B70004FEA03334CEA133302D0524263EB430360
:103B800094EA050F00F0A780A4F10104D5F1200EFE
:103B90000DDB02FA0EFC22FA05F2801841F1000159
:103BA00003FA0EF2801843FA05F359410EE0A5F12D
:103BB00020050EF1200E012A03FA0EFC28BF4CF05E
:103BC000020C43FA05F3C01851EBE37101F0004514
:103BD00007D54FF0000EDCF1000C7EEB00006EEB21
:103BE0000101B1F5801F1BD3B1F5001F0CD34908AB
:103BF0005FEA30004FEA3C0C04F101044FEA445202
:103C000012F5800F80F09A80BCF1004F08BF5FEA88
:103C1000500C50F1000041EB045141EA050130BD68
:103C20005FEA4C0C404141EB0101013C28BFB1F57A
:103C3000801FE9D291F0000F04BF01460020B1FAC5
:103C400081F308BF2033A3F10B03B3F120020CDA98
:103C50000C3208DD02F1140CC2F10C0201FA0CF076
:103C600021FA02F10CE002F11402D8BFC2F1200CDB
:103C700001FA02F120FA0CFCDCBF41EA0C01904091
:103C8000E41AA2BF01EB0451294330BD6FEA0404DA
:103C90001F3C1CDA0C340EDC04F11404C4F12002C5
:103CA00020FA04F001FA02F340EA030021FA04F3D7
:103CB00045EA030130BDC4F10C04C4F1200220FA2E
:103CC00002F001FA04F340EA0300294630BD21FA6C
:103CD00004F0294630BD94F0000F83F4801306BF32
:103CE00081F480110134013D4EE77FEA645C18BF26
:103CF0007FEA655C29D094EA050F08BF90EA020FBD
:103D000005D054EA000C04BF1946104630BD91EAB4
:103D1000030F1EBF0021002030BD5FEA545C05D1B7
:103D20004000494128BF41F0004130BD14F58004F6
:103D30003CBF01F5801130BD01F0004545F0FE416A
:103D400041F470014FF0000030BD7FEA645C1ABF9F
:103D5000194610467FEA655C1CBF0B46024650EAD6
:103D6000013406BF52EA033591EA030F41F4002102
:103D700030BD00BF90F0000F04BF0021704730B588
:103D80004FF4806404F132044FF000054FF000015D
:103D900050E700BF90F0000F04BF0021704730B51E
:103DA0004FF4806404F1320410F0004548BF4042F3
:103DB0004FF000013EE700BF42004FEAE2014FEA48
:103DC00031014FEA02701FBF12F07F4393F07F4F23
:103DD00081F06051704732F07F4208BF704793F026
:103DE0007F4F04BF41F40021704730B54FF4607439
:103DF00001F0004521F000411CE700BF50EA01023C
:103E000008BF704730B54FF000050AE050EA0102E4
:103E100008BF704730B511F0004502D5404261EB54
:103E200041014FF4806404F132045FEA915C3FF495
:103E3000D8AE4FF003025FEADC0C18BF03325FEA32
:103E4000DC0C18BF033202EBDC02C2F1200300FAE3
:103E500003FC20FA02F001FA03FE40EA0E0021FA08
:103E600002F11444BDE600BF70B54FF0FF0C4CF4F6
:103E7000E06C1CEA11541DBF1CEA135594EA0C0FA8
:103E800095EA0C0F00F0DEF82C4481EA030621EAE3
:103E90004C5123EA4C5350EA013518BF52EA03351E
:103EA00041F4801143F4801338D0A0FB02CE4FF0D0
:103EB0000005E1FB02E506F00042E0FB03E54FF000
:103EC0000006E1FB03569CF0000F18BF4EF0010EF8
:103ED000A4F1FF04B6F5007F64F5407404D25FEAF4
:103EE0004E0E6D4146EB060642EAC62141EA5551A7
:103EF0004FEAC52040EA5E504FEACE2EB4F1FD0CE9
:103F000088BFBCF5E06F1ED8BEF1004F08BF5FEA66
:103F1000500E50F1000041EB045170BD06F0004618
:103F200046EA010140EA020081EA0301B4EB5C04C5
:103F3000C2BFD4EB0C0541EA045170BD41F48011BD
:103F40004FF0000E013C00F3AB8014F1360FDEBFE2
:103F5000002001F0004170BDC4F10004203C35DABE
:103F60000C341BDC04F11404C4F1200500FA05F341
:103F700020FA04F001FA05F240EA020001F00042E2
:103F800021F0004110EBD37021FA04F642EB060158
:103F90005EEA430E08BF20EAD37070BDC4F10C0482
:103FA000C4F1200500FA04F320FA05F001FA04F246
:103FB00040EA020001F0004110EBD37041F1000132
:103FC0005EEA430E08BF20EAD37070BDC4F120053D
:103FD00000FA05F24EEA020E20FA04F301FA05F2A5
:103FE00043EA020321FA04F001F0004121FA04F24D
:103FF00020EA020000EBD3705EEA430E08BF20EA1D
:10400000D37070BD94F0000F0FD101F00046400056
:1040100041EB010111F4801F08BF013CF7D041EAD8
:10402000060195F0000F18BF704703F000465200DC
:1040300043EB030313F4801F08BF013DF7D043EAAD
:104040000603704794EA0C0F0CEA135518BF95EA63
:104050000C0F0CD050EA410618BF52EA4306D1D1EA
:1040600081EA030101F000414FF0000070BD50EA09
:10407000410606BF1046194652EA430619D094EA93
:104080000C0F02D150EA013613D195EA0C0F05D17D
:1040900052EA03361CBF104619460AD181EA0301D1
:1040A00001F0004141F0FE4141F470014FF0000089
:1040B00070BD41F0FE4141F4780170BD70B54FF024
:1040C000FF0C4CF4E06C1CEA11541DBF1CEA1355A4
:1040D00094EA0C0F95EA0C0F00F0A7F8A4EB050486
:1040E00081EA030E52EA03354FEA013100F088807D
:1040F0004FEA03334FF0805545EA131343EA126346
:104100004FEA022245EA111545EA10654FEA0026FA
:104110000EF000419D4208BF964244F1FD0404F5B3
:10412000407402D25B084FEA3202B61A65EB03050F
:104130005B084FEA32024FF480104FF4002CB6EBCC
:10414000020E75EB030E22BFB61A754640EA0C004C
:104150005B084FEA3202B6EB020E75EB030E22BF8C
:10416000B61A754640EA5C005B084FEA3202B6EBCD
:10417000020E75EB030E22BFB61A754640EA9C008C
:104180005B084FEA3202B6EB020E75EB030E22BF5C
:10419000B61A754640EADC0055EA060E18D04FEA1A
:1041A000051545EA16754FEA06164FEAC30343EABA
:1041B00052734FEAC2025FEA1C1CC0D111F4801F87
:1041C0000BD141EA00014FF000004FF0004CB6E780
:1041D00011F4801F04BF01430020B4F1FD0C88BF1F
:1041E000BCF5E06F3FF6AFAEB5EB030C04BFB6EB2A
:1041F000020C5FEA500C50F1000041EB045170BD1D
:104200000EF0004E4EEA113114EB5C04C2BFD4EB49
:104210000C0541EA045170BD41F480114FF0000ECD
:10422000013C90E645EA060E8DE60CEA135594EA49
:104230000C0F08BF95EA0C0F3FF43BAF94EA0C0F4C
:104240000AD150EA01347FF434AF95EA0C0F7FF4C1
:1042500025AF104619462CE795EA0C0F06D152EA15
:1042600003353FF4FDAE1046194622E750EA4106F9
:1042700018BF52EA43067FF4C5AE50EA41047FF40A
:104280000DAF52EA43057FF4EBAE12E74A0011D2BC
:1042900012F5001211D20DD56FF47873B3EB6252A0
:1042A0000ED44FEAC12343F0004343EA505323FAAC
:1042B00002F070474FF00000704750EA013002D121
:1042C0004FF0FF3070474FF0000070470A449142B2
:1042D00000F1FF3300D1704710B511F8014B03F81E
:1042E000014F9142F9D110BD02440346934200D1DF
:1042F000704703F8011BF9E770B50E46054618B183
:1043000083690BB900F048FAAB69AC6813B9284669
:1043100000F042FA2C4B9C4220D16C68636EDB07A4
:1043200005D4A389980502D4A06D00F0D3FAA3891F
:1043300019071DD52369DBB1013EA36816F8011FDB
:10434000013BA36039BB002B38DA22460A212846FC
:1043500000F048F8013011D00A2511E01B4B9C42B7
:1043600001D1AC68DAE71A4B9C4208BFEC68D5E78C
:104370002146284600F088F80028DDD04FF0FF35B0
:10438000636EDA0705D4A3899B0502D4A06D00F003
:10439000A2FA284670BD002B04DAA2699A4206DC14
:1043A0000A2904D023685A1C22601970C5E72246E6
:1043B000284600F017F80130BFD1DFE723680A254F
:1043C0005A1C22601D70DBE74C4D21086C4D210802
:1043D0002C4D2108024B01461868FFF78DBF00BF26
:1043E000C8030000F8B50E461446054618B18369A7
:1043F0000BB900F0D1F9214B9C422BD16C68A36919
:10440000A360A3891A072FD523696BB3236920689A
:10441000C01A6369F6B28342374604DC2146284657
:1044200000F026F930BBA368013BA36023685A1C47
:1044300022601E7063690130834204D0A389DB07C8
:1044400006D50A2E04D12146284600F011F988B974
:104450003846F8BD0A4B9C4201D1AC68CFE7094B06
:104460009C4208BFEC68CAE72146284600F00CF8D9
:104470000028CBD04FF0FF37EAE700BF4C4D2108B2
:104480006C4D21082C4D2108324B70B51D68064635
:104490000C4625B1AB6913B9284600F07DF92E4BC7
:1044A0009C420FD16C68A389B4F90C2019072CD455
:1044B000DD0611D40923336042F04003A3814FF09D
:1044C000FF303EE0254B9C4201D1AC68EBE7244B2A
:1044D0009C4208BFEC68E6E7580712D5616B41B112
:1044E00004F14403994202D0304600F05BFA002305
:1044F0006363A38923F02403A381002363602369FA
:104500002360A38943F00803A38123694BB9A389DE
:1045100003F42073B3F5007F03D02146304600F04A
:1045200001FAA089B4F90C2010F001030AD000238D
:10453000A36063695B42A361236943B910F0800003
:10454000BAD170BD810758BF6369A360F4E700204A
:10455000F7E700BFC80300004C4D21086C4D21084F
:104560002C4D21088A892DE9F041054610070C469B
:1045700058D44B68002B05DC0B6C002B02DC0020B0
:10458000BDE8F081E66A002EF9D0002312F48052D3
:104590002F682B6032D0606DA3895A0705D56368F8
:1045A000C01A636B0BB1236CC01A00230246E66A83
:1045B000216A2846B047431CA38906D129681D29D2
:1045C0002CD82A4ACA40D60728D500226260D904CE
:1045D0002269226004D5421C01D12B6803B96065B1
:1045E000616B2F600029CAD004F14403994202D0C4
:1045F000284600F0D7F900206063C1E7216A012353
:104600002846B047411CC7D12B68002BC4D01D2BB6
:1046100001D0162B01D12F60B1E7A38943F04003ED
:10462000A381ADE70F69002FA9D093070E6808BFDB
:104630004B690F6018BF0023A6EB07088B60B8F129
:10464000000F9CDD216AA66A43463A462846B047D9
:10465000002806DCA38943F04003A3814FF0FF301C
:104660008EE70744A8EB0008E9E700BF01004020FF
:1046700038B50B6905460C4613B90025284638BDE8
:1046800018B183690BB900F087F8144B9C421BD119
:104690006C68B4F90C30002BEFD0626ED00704D4F4
:1046A000990502D4A06D00F015F928462146FFF7C0
:1046B00059FF636EDA070546E0D4A3899B05DDD474
:1046C000A06D00F008F9D9E7054B9C4201D1AC6818
:1046D000DFE7044B9C4208BFEC68DAE74C4D210849
:1046E0006C4D21082C4D2108002310B50446C0E96B
:1046F0000033C0E90433836081814366C2818361F2
:10470000194608225C30FFF7EFFD054B6362054B4D
:10471000A362054BE362054B2462236310BD00BF17
:10472000114B2108334B21086B4B21088F4B21087B
:10473000014900F0AFB800BF7146210870B568228A
:104740004D1E55430E4605F1740100F077F90446FD
:1047500040B10021C0E900160C30A06005F16802EC
:10476000FFF7C2FD204670BD014800F0B3B800BF9E
:1047700039090000014800F0AEB800BF3909000057
:10478000014800F0A7B800BF3A090000014800F056
:10479000A2B800BF3A09000010B50446FFF7F0FFC9
:1047A000A3691BB1BDE81040FFF7F0BFC4E91233A5
:1047B0002365134B134A1B68A262A34204BF012363
:1047C000A361204600F020F86060204600F01CF84D
:1047D000A060204600F018F80022E0600421606824
:1047E000FFF782FFA06801220921FFF77DFFE06843
:1047F00002221221FFF778FF0123A361D2E700BF55
:10480000284D210831472108F8B50746FFF7ACFFCE
:104810001E4B1E68B36913B93046FFF7BDFF48361B
:10482000D6E90134013B03D533680BB33668F7E7AB
:10483000B4F90C50D5B9164BE36004F15800656625
:1048400000F047F8FFF796FFC4E90155C4E90455A5
:104850002560A5610822294604F15C00FFF744FDAC
:10486000C4E90D55C4E912552046F8BD6834D9E7AE
:1048700004213846FFF762FF044630600028D5D196
:10488000FFF778FF0C233B60EEE700BF284D2108BF
:104890000100FFFF2DE9F8430646884600F1480471
:1048A0000027D4E90195B9F1010905D52468002C48
:1048B000F7D13846BDE8F883AB89012B07D9B5F9A4
:1048C0000E30013303D029463046C04707436835D0
:1048D000E9E770477047704770B50E46B1F90E10A2
:1048E000002996B014461D4608DAB6F90C300022AD
:1048F0002A601A0610D44FF480630EE06A4600F076
:104900006DF90028F1DB019A02F47042A2F5005320
:104910005A425A412A60EEE740230020236016B035
:1049200070BD00008B8973B59D0706460C4607D500
:1049300004F14703236023610123636102B070BD6A
:1049400001AB6A46FFF7C8FF00990546304600F004
:1049500075F848B9B4F90C309A05EFD423F0030385
:1049600043F00203A381E3E70D4BB362A389206008
:1049700043F08003A381009B6361019B20615BB1D5
:10498000B4F90E10304600F03BF928B1A38923F0AA
:10499000030343F00103A381A0890543A581CDE76B
:1049A0003147210837B5002944D051F8043C019023
:1049B000002BA1F10404B8BFE41800F043F91E4A2B
:1049C0000198136833B96360146003B0BDE83040E8
:1049D00000F03EB9A34208D9256861198B4201BF96
:1049E00019685B6849192160EDE71A465B680BB1ED
:1049F000A342FAD911685518A5420BD12468214465
:104A00005418A3421160E0D11C685B6853602144D4
:104A10001160DAE702D90C230360D6E72568611933
:104A20008B4204BF19685B68636004BF4919216049
:104A30005460CAE703B030BD3C090000F8B5CD1C96
:104A400025F0030508350C2D38BF0C25002D064632
:104A500001DBA94203D90C2333600020F8BD00F02C
:104A6000F1F821490A6814469CB9204F3B6823B9E4
:104A70002146304600F03CF838602946304600F0C8
:104A800037F8431C23D10C233360304600F0E0F8A4
:104A9000E3E723685B1B17D40B2B03D923601C446B
:104AA000256004E06368A2420CBF0B60536030468F
:104AB00000F0CEF804F10B00231D20F00700C21A0D
:104AC000CCD01B1AA350C9E722466468CCE7C41CAB
:104AD00024F00304A042E3D0211A304600F008F885
:104AE0000130DDD1CFE700BF3C09000040090000E4
:104AF00038B5064D0023044608462B60FDF7A0FCA0
:104B0000431C02D12B6803B1236038BD3409000077
:104B100010B50C46B1F90E1000F0A0F80028ABBF9C
:104B2000636DA3891B1823F48053ACBF6365A38115
:104B300010BD2DE9F0411F468B89DB0505460C466B
:104B4000164605D5B1F90E100223002200F068F8D0
:104B5000A389B4F90E1023F48053A38132463B4657
:104B60002846BDE8F04100F017B810B50C46B1F981
:104B70000E1000F055F8431CA38915BF606523F49F
:104B8000805343F48053A38118BFA38110BDB1F9B2
:104B90000E1000F013B8000038B5074D0446084663
:104BA000114600222A601A46FDF73CFC431C02D144
:104BB0002B6803B1236038BD3409000038B5064DB9
:104BC0000023044608462B60FDF754FC431C02D129
:104BD0002B6803B1236038BD3409000038B5074D98
:104BE00000230446084611462B60FDF746FC431C93
:104BF00002D12B6803B1236038BD00BF3409000027
:104C000038B5064D0023044608462B60FDF73AFCF4
:104C1000431C02D12B6803B1236038BD3409000066
:104C200038B5074D04460846114600222A601A4648
:104C3000FDF72AFC431C02D12B6803B1236038BD69
:104C4000340900000148FFF745BE00BF38090000E5
:104C50000148FFF740BE00BF3809000038B5074DD6
:104C600004460846114600222A601A46FDF70EFC4B
:104C7000431C02D12B6803B1236038BD3409000006
:104C8000F8B500BFF8BC08BC9E467047F8B500BF39
:104C9000F8BC08BC9E467047436F7265206973205C
:104CA000536C656570696E67202E2E2E0000000023
:104CB000652C2108852C2108912C2108C52C210860
:104CC000E92C2108112D2108412D2108712D2108E1
:104CD000A52D2108B92D2108092E2108CD2D210847
:104CE000E12D2108F52D210802020A02000B06061B
:104CF000001B0600000606010049061F0001030014
:104D00000000030000060300000703000008020380
:104D100000060201002F020B0030020C0009020401
:104D2000001D0200001E0200CC0300000000000075
:104D30000000000000000000000000000000000073
:104D40000000000000000000000000000000000063
:104D50000000000000000000000000000000000053
:104D60000000000000000000000000000000000043
:104D70000000000000000000000000000000000033
:104D8000000000000000000000000000654B0178FA
:104D9000D3F8002501F0010122F4802242EA814289
:104DA00030B54178C3F80025D3F89C24047801F08D
:104DB0000101890022F4601241EA941122F4FC52AC
:104DC00042EAC141C27C847C02F00302520042EA02
:104DD000D412C4F30215D20142EA85220A43C3F871
:104DE0009C24D3F8AC140278447821F01F01C2F35C
:104DF00044020A43C3F8AC248278D3F8101402F0BA
:104E00000302520121F4FE1142EAD40241EA823245
:104E1000C3F81024D3F804248178434C890822F481
:104E2000FC1242EAC132C3F80424D3F80824C17842
:104E300022F4F81201F01F0142EA0142C3F80824EB
:104E4000D3F80C24817922F4FE12490842EA813217
:104E5000C3F80C24D3F83824C17922F4F03201F0DD
:104E60000F0142EA4132C3F83824D3F81424017AFE
:104E700022F4FE1201F07F0142EA8132C3F81424C9
:104E8000D4F80825C37A817AC57C5B0043EAD11344
:104E9000017B22F47F7201F0010122F0030243EA58
:104EA00041231343214AC4F808352149D2F8344438
:104EB0000123C2F83434D1F8103A23F00F0343EA47
:104EC0001513C1F8103AC2F8344402F5B83290F81C
:104ED0002440D2F8403723F4F01343F4C013C2F84F
:104EE0004037D2F87C17837F21F00F01C3F383038F
:104EF0000B43C2F87C3790F82530D2F8481703F0FE
:104F000007035B0043EAD41321F4F031033341EA91
:104F10004333C2F84837D2F8383743F00403C2F8B5
:104F2000383730BD00A0052400800424001004247C
:104F30000030042401000000C4A40524008000788F
:104F400001000000CCA405240080007801000000CE
:104F5000C0A405246400005801000000C8A4052472
:104F600064000058020000009CA405240300C0ACAB
:104F7000ACA40524100000200100000000A50524B9
:104F80000000805A0200000060870524030080AC06
:104F9000748705240600409C01000000408705241A
:104FA0000C0040A40100000004A405242000C0A3BC
:104FB00001000000E0A40524D90300500100000016
:104FC000488705240000408301000000A0A40524B8
:104FD000000040AD010000009CA405240100C04970
:104FE000090000009CA405240100C049A4A40524D4
:104FF0000100008400A505241900C09B94A4052489
:105000000100801014A405240100006394A4052469
:105010000100008C94A40524020000ADACA405247A
:105020000000402910A505240100402902000000CD
:1050300098A405242F003EA8A0A40524200020A8A1
:10504000010000007C870524000000180500000016
:10505000A0A40524000040AD9CA4052402008062A9
:1050600098A40524F80040A3A0A4052410008051B2
:10507000A0A40524010040AD0100000010A40524F7
:10508000380080A30100000014A40524270080A399
:105090000100000010A405245A0080A311000000A4
:1050A000408705240C0040A440870524BF00006011
:1050B00048870524260000604887052403004094A3
:1050C0004C87052420030070688705240300C02056
:1050D000448705240100C09C6087052401008010DE
:1050E000788705240700404158870524CB000058E5
:1050F000748705249A2412A874870524030080412C
:105100004087052408004083708705240500007B44
:10511000708705240400001074870524020000AD88
:1051200070870524010000840100000000A505240B
:105130000300809C030000000CA405245A0080A3F7
:105140000CA40524000040100CA40524000000005D
:10515000030000000CA405245A0080A30CA405241D
:10516000020040100CA40524000000000300000011
:105170000CA405245A0080A30CA4052403004010AD
:105180000CA405240000000002000000A4A40524D3
:10519000000080A4A4A405240100008401000000F4
:1051A00008A40524150000A40100000008A405249B
:1051B000070000A401000000D0A40524F200008034
:1051C00001000000D8A405240E01004801000000E1
:1051D0009CA40524000080620100000038A405247E
:1051E0000000002801000000DCA40524BF040058D2
:1051F0000100000038A405240300408301000000E2
:1052000038A40524030040830048E801000003445B
:105210002100000000FC0200008007240A000000BA
:1052200000000624891F000000000245270000003E
:105230000000000000000000A408000000000000C2
:10524000F84C2108F44C2108EC4C2108F04C2108C2
:10525000000000000000000000000000010000004D
:10526000000000000000000089070000001804246E
:105270000C0000000000000000000000D408000046
:1052800000000000084D2108044D2108FC4C2108B5
:10529000004D210800000000000000000000000098
:1052A0000000000000000000000000009FFF1F0041
:1052B0000000004426000000000000000000000084
:1052C000040900000C4D2108244D2108204D21081F
:1052D0001C4D2108104D2108184D2108144D21089E
:1052E00000000000010000000000000000000000BD
:1052F000CC030000000000004C4D21086C4D21083B
:105300002C4D2108000000000000000000000000FB
:10531000000000000000000000000000000000008D
:10532000000000000000000000000000000000007D
:10533000000000000000000000000000000000006D
:10534000000000000000000000000000000000005D
:1053500000000000ED212108C92121080000000003
:10536000000000000000000000000000000000003D
:10537000000000000000000000000000000000002D
:10538000000000000000000000000000000000001D
:10539000000000000000000000000000000000000D
:00000001FF
